:020000040800F2
:10000000201F00209D010008A5010008913800086C
:10001000A9010008AB010008AD01000800000000C4
:10002000000000000000000000000000AF01000818
:10003000B101000800000000B3010008E14200081F
:10004000B7010008C53D0008B7010008D14200080B
:10005000B7010008B70100080B09000849090008AA
:10006000530900085D09000867090008B701000886
:10007000B7010008B7010008B7010008B701000880
:10008000B7010008B7010008B7010008B701000870
:10009000B7010008B7010008B7010008710900089E
:1000A000B7010008B7010008B7010008B701000850
:1000B000B7010008B7010008B7010008B701000840
:1000C000B7010008B7010008B7010008B701000830
:1000D000B7010008F1490008014A0008114A000868
:1000E00015090008B5410008B7010008B70100086C
:1000F000B7010008B7010008B7010008B701000800
:10010000B7010008B7010008B7010008B7010008EF
:10011000B7010008B7010008B7010008B7010008DF
:10012000B7010008B7010008B7010008B7010008CF
:10013000B7010008B7010008B7010008B7010008BF
:10014000B7010008D93B0008B7010008B701000853
:10015000B7010008B7010008B7010008B70100089F
:10016000B7010008B7010008B7010008B70100088F
:10017000B7010008B7010008B7010008000000003F
:10018000B7010008B7010008DFF80CD000F06EFBE3
:100190000048004739900008201F0020064880478B
:1001A00006480047FEE7FEE7FEE7FEE7FEE7FEE75C
:1001B000FEE7FEE7FEE7FEE7ED42000889010008E2
:1001C0002DE9F05F0546002092469B46884606468C
:1001D000814640241BE0284641464746224600F01F
:1001E00084F953465A46C01A914110D31146184615
:1001F000224600F06BF92D1A67EB01084F462246A4
:100200000120002100F062F917EB00094E41201E89
:10021000A4F10104DFDC484631462A46434600F09B
:1002200000B830BCBDE8C09F2DE9F0410024061B9A
:10023000254671F1000605DA01240027D0EB0700FE
:1002400067EB0101161E73F1000605DA0027D2EBF9
:100250000702012567EB0303FFF7B2FF86460E4650
:1002600017469C46AC4204D00025D0EB050E65EB4A
:10027000010624B10020D2EB000760EB030C7046AE
:1002800031463A466346BDE8F0810000014610B5AC
:1002900009683C22B1FBF2F302FB1313B1FBF2F14C
:1002A0001D480360B1FBF2F302FB1313B1FBF2F143
:1002B00018224360B1FBF2F302FB1313B1FBF2F11E
:1002C00083600A1D0723B2FBF3F403FB142282614F
:1002D0008A0040F2B55102F66C32B2FBF1F34433BE
:1002E0004361B2FBF1F301FB13218908C1613B2992
:1002F00003D3027D920700D0491C0022074C13460D
:100300000261E25C8A4203D8891A5B1C0361F8E748
:10031000491CC16010BD0000F01600202CA400088C
:1003200040EA01039B0703D009E008C9121F08C077
:10033000042AFAD203E011F8013B00F8013B521EF7
:10034000F9D27047D2B201E000F8012B491EFBD26E
:1003500070470022F6E710B513460A4604461946D0
:10036000FFF7F0FF204610BD421C10F8011B0029CA
:10037000FBD1801A70472DE9F04D81EA030404F0A7
:10038000004B21F0004514464FF0000A23F00041D5
:1003900050EA050220D054EA01021DD0C5F30A57E5
:1003A0000246C5F31303C1F31300C1F30A5640F428
:1003B000801543F48013A7EB0608101BD64608F2FD
:1003C000FD3873EB050002D308F1010801E0921833
:1003D0005B41B8F1000F03DA00200146BDE8F08D63
:1003E00000204FF48011064684460EE0171B73EB85
:1003F000050705D3121B63EB050306434CEA010C0A
:1004000049084FEA300092185B4150EA0107EDD1EC
:1004100052EA030012D082EA040083EA050108438D
:1004200005D0101BAB4106D20122002306E00022BA
:100430004FF0004302E06FF0010253101AEB060088
:100440004CEB085110EB0A0041EB0B01BDE8F04DFD
:1004500000F05BB80EB540F2334102910021CDE9C6
:1004600000110A460B4600F05FF803B000BDC1F36F
:100470000A5210B5C1F3130140F2FF3341F4801169
:100480009A4201DA002010BD40F233439A42A2F2B0
:10049000334203DC524200F028F810BD904010BDFA
:1004A00030B50B46014600202022012409E021FA44
:1004B00002F59D4205D303FA02F5491B04FA02F541
:1004C0002844151EA2F10102F1DC30BD202A04DB14
:1004D000203A00FA02F1002070479140C2F1200357
:1004E00020FA03F3194390407047202A04DB203A96
:1004F00021FA02F00021704721FA02F3D040C2F144
:100500002002914008431946704710B5141E73F13C
:10051000000408DA401C41F1000192185B411A43C3
:1005200001D120F0010010BD2DE9F04D92469B460F
:1005300011B1B1FA81F202E0B0FA80F220329046B5
:10054000FFF7C4FF04460F4640EA0A0041EA0B01E8
:1005500053465A46084313D0114653EA010019D0B6
:10056000C8F140025046FFF7C0FF05460E46504610
:1005700059464246FFF7AAFF084305D0012004E090
:1005800020463946BDE8F08D0020054346EAE07676
:100590002C4337430A986305E40AA0EB08000022C5
:1005A000FD0A44EA47540A3002D500200146E9E733
:1005B000010510196941DDE9084500196941BDE8E7
:1005C000F04DA2E72DE9FE4F804681EA0300C00FFF
:1005D0000C46009021F0004123F00045B8EB0200EA
:1005E000A94105D24046214690461C460B4602468C
:1005F00023F00040104347D0270DC7F30A00C3F390
:100600000A510290401A019040286BDAC3F313009C
:1006100040F4801B0098924620B10023D2EB030ADD
:1006200063EB0B0B01985946C0F140025046FFF7AF
:100630004DFF06460D4650465946019A00F028F9EE
:1006400010EB08006141002487EA115284EAE77345
:100650001A4340D0009A62B3019A012A4FEA075226
:1006600015DC001B61EB02014FF0004202EA075269
:10067000CDE90042001C41F5801132462B46FFF7C0
:1006800053FF03B000F045B840462146F9E7001B90
:1006900061EB0201001C41F5801300185B4120183A
:1006A000A2F5001747EB030140EAD570B6196D417A
:1006B00011E06D084FEA360645EAC0754FEA075269
:1006C000001B61EB0201001C41F5801149084FEA53
:1006D00030000019514132462B4603B000F01CB8DF
:1006E000FFF713BF0098012240000023D0EB020265
:1006F00063EBE073009821464FEAE074B8EB00002A
:1007000061EB0401E9E783F000435BE781F000411E
:1007100058E730BCBDE8C08F30BCBDE8C04FFFF724
:10072000DFBF2DE9FE4F81EA030404F0004421F00D
:10073000004100944FF0000B23F0004350EA010405
:100740005ED052EA03045BD0C3F30A54C1F30A55E6
:100750002C44A4F2F3340194A0FB0254C1F313011E
:1007600041F48011C3F3130343F4801301FB0244EB
:1007700000FB034E840A970A44EA815447EA8357F0
:10078000A4FB076802958D0A05FB07854FEA932CA9
:1007900004FB0C542705029D4FEA065847EA16371A
:1007A000B5EB08056EEB070C870E920E47EA811732
:1007B00042EA8312A7FB0201B6EB0B0164EB0004D3
:1007C0002B0D43EA0C335E1844EB1C50DA465146BD
:1007D000E7FB0201C5F313044FEA0B3343EA14535A
:1007E0004FEA0432019C43EA0603A4F10C0402948C
:1007F000009CCDE900B4FFF797FE03B000F003B80A
:1008000000200146F9E730BCBDE8C08FC1F30A52B1
:10081000C1F3130140F2FF3341F480119A4202DA2E
:1008200000200146704740F233439A42A2F233421D
:1008300002DC5242FFF759BEFFF748BE30B5041E36
:1008400071F1000404DB4FF00044404264EB01010D
:10085000141E73F1000405DB1C464FF000435242A6
:1008600063EB0403994208BF904230BD064C074D2C
:1008700006E0E06840F0010394E807009847103470
:10088000AC42F6D3FFF784FC38A4000858A4000853
:10089000202A06DBCB17203A41FA02F043EAE07344
:1008A00006E041FA02F3D040C2F120029140084331
:1008B0001946704770B58C1810F8015B15F00703E6
:1008C00001D110F8013B2A1106D110F8012B03E0E9
:1008D00010F8016B01F8016B5B1EF9D12B0705D4F1
:1008E0000023521E0DD401F8013BFAE710F8013B3A
:1008F000CB1A921C03E013F8015B01F8015B521E56
:10090000F9D5A142D8D3002070BD10B5012000F068
:1009100065F910BD10B54FF4806000F05FF94FF439
:10092000006000F05BF94FF4805000F057F94FF48D
:10093000005000F053F94FF4804000F04FF94FF4AD
:10094000004000F04BF910BD10B5022000F046F950
:1009500010BD10B5042000F041F910BD10B50820FD
:1009600000F03CF910BD10B5102000F037F910BDB3
:1009700010B5202000F032F9402000F02FF980203F
:1009800000F02CF94FF4807000F028F94FF400705B
:1009900000F024F910BD00000348406820F0010079
:1009A0000149486070470000002004E003484068A7
:1009B00020F004000149486070470000002004E076
:1009C0000348406820F00200014948607047000079
:1009D000002004E070B50446002594F825000228A4
:1009E00003D00420E063012520E02068006820F0A7
:1009F0000E00216808602068006820F0010021686E
:100A0000086094F8440000F01C0101208840216C2B
:100A10004860012084F8250000BF002084F82400ED
:100A200000BFA06B10B12046A16B8847284670BD5F
:100A300070B5044600F0F0F906462546681C10B172
:100A400004480068054400BF00F0E6F9801BA84296
:100A5000FAD370BD38000020F0B50B46002187E0C6
:100A600001258D4005EA0302002A7DD0434D8E0802
:100A700055F826408D072E0F0F25B5402C40B0F1BC
:100A8000904F01D100251EE03D4DA84201D1012526
:100A900019E03C4DA84201D1022514E03A4DA8428C
:100AA00001D103250FE0394DA84201D104250AE008
:100AB000374DA84201D1052505E0364DA84201D1A8
:100AC000062500E007258E07360FB540A54221D147
:100AD000314D2D689543304E3560351D2D68954359
:100AE000361D3560351D2D689543361D3560351D25
:100AF0002D689543361D35608D072E0F0F2505FA9D
:100B000006F41E4D8E0855F82650A5431B4E8F083F
:100B100046F8275005684F000326BE403543056060
:100B2000CE0800F1200555F826504E07F70E0F2687
:100B3000BE40B543CF0800F1200646F8275085682F
:100B40004F000326BE40B5438560466801258D40B1
:100B5000AE434660C5684F000326BE40B543C5603E
:100B6000C56A01268E4000E001E0B543C562491C1C
:100B700023FA01F5002D7FF473AFF0BD08000140AA
:100B80000004004800080048000C0048001000481D
:100B900000140048001800480004014070B50546E4
:100BA0000024002D05DD02E06D10601CC4B2012D93
:100BB000FAD1094850F8240068B1074850F82400D9
:100BC000806840B1044A52F824205068024A52F822
:100BD00024209168884770BD3815002010B5044660
:100BE00004480068204020B1024804602046FFF716
:100BF000D5FF10BD1404014078B503460022E5E09E
:100C0000012696400D6805EA0604002C7DD04D684B
:100C1000022D02D04D68122D13D1D60803F1200504
:100C200055F826005507EE0E0F25B540A843560788
:100C3000F60E0D69B5402843D60803F1200545F8A6
:100C40002600186856000325B540A8430D7905F025
:100C500003055600B540284318604D68012D08D0A3
:100C60004D68022D05D04D68112D02D04D68122D12
:100C700013D1986856000325B540A8435600CD68A7
:100C8000B54028439860586801259540A8430D79E0
:100C9000C5F300159540284358600D7905F003050C
:100CA000032D09D1D86A01259540A8430D79C5F3D4
:100CB000C00595402843D862D86856000325B54042
:100CC000A84356008D68B5402843D8604D6805F0AC
:100CD0008055B5F1805F78D100BF3F4D2D6E45F056
:100CE00001053D4E356635462D6E05F00105009532
:100CF00000BF00BF4FEAB635960855F826009507A5
:100D00002E0F0F25B540A84300E05EE0B3F1904FF1
:100D100001D100251EE0314DAB4201D1012519E082
:100D20002F4DAB4201D1022514E02E4DAB4201D133
:100D300003250FE02C4DAB4201D104250AE02B4DD9
:100D4000AB4201D1052505E0294DAB4201D1062575
:100D500000E007259607360FB5402843254D960835
:100D600045F82600244D2868A0434D6805F48035D9
:100D7000B5F5803F00D120431F4D28602D1D286808
:100D8000A0434D6805F40035B5F5003F00D1204380
:100D9000194D2D1D28602D1D2868A0434D6805F4B0
:100DA0008015B5F5801F00D12043134D083528600C
:100DB0002D1D2868A0434D6805F40015B5F5001FEA
:100DC00000D120430C4D0C352860521C0D68D540D5
:100DD000002D7FF415AF78BD0010024000040048DC
:100DE00000080048000C00480010004800140048AB
:100DF0000018004808000140000401400246136941
:100E00000B400BB1012000E0002070470AB1816166
:100E100000E08162704700000148006870470000F0
:100E200030000020024692F8410020282DD100BF5A
:100E300092F84000012801D102207047012082F879
:100E4000400000BF242082F841001068006820F0B4
:100E50000100136818601068006820F4805013685F
:100E6000186010680068084313681860106800680C
:100E700040F0010013681860202082F8410000BF94
:100E8000002082F8400000BFD7E70220D5E710B568
:100E900002460B4692F8410020282AD100BF92F862
:100EA0004000012801D1022010BD012082F840003D
:100EB00000BF242082F841001068006820F0010083
:100EC000146820601068016821F4706141EA032110
:100ED000106801601068006840F00100146820602C
:100EE000202082F8410000BF002082F8400000BFAF
:100EF000DAE70220D8E710B504460CB9012010BD8E
:100F0000242084F841002068006820F00100216856
:100F10000860204600F014FA0020606484F8410064
:100F2000206384F8420000BF84F8400000BF00BF87
:100F3000E5E7000010B504460CB9012010BD94F897
:100F4000410028B9002084F84000204600F05EFAF5
:100F5000242084F841002068006820F00100216806
:100F60000860606820F0706021680861206880680F
:100F700020F4004021688860E068012805D1A0685D
:100F800040F400402168886004E0A06840F4044018
:100F900021688860E068022802D1800221684860E8
:100FA0002068406813490843216848602068C06889
:100FB00020F400402168C860D4E904010843A16915
:100FC00040EA01202168C860D4E90701084321688C
:100FD00008602068006840F0010021680860002077
:100FE0006064202084F841000020206384F84200DF
:100FF00000BFA3E7008000022DE9FC5F044689469C
:1010000092469B46DDE90C780E9E94F8410020281C
:101010007ED117B1B8F1000F05D14FF400706064B4
:10102000012000F0B9B800BF94F84000012801D1B8
:101030000220F6E7012084F8400000BFFFF7ECFE35
:10104000054619230122D1032046009502F03CFDFC
:1010500008B10120E5E7222084F84100402084F80F
:101060004200002060646762A4F82A8060635B46E7
:10107000524649462046CDE9006502F08FFC30B16A
:1010800000BF002084F8400000BF0120C9E7608D48
:10109000FF280CD9FF2020853D48009094F8282097
:1010A0004FF080734946204602F0F4FC0BE0608D5F
:1010B00020853748009094F828204FF00073494667
:1010C000204602F0E7FC00BF334600220421204600
:1010D000009502F0F9FC08B10120A2E72068406AFF
:1010E000616A0870606A401C6062208D401E208525
:1010F000608D401E6085608D48B3208D38BB3346BF
:10110000002280212046009502F0DEFC18B100E0AC
:101110003CE0012085E7608DFF280CD9FF20208569
:101120000020009094F828204FF080734946204614
:1011300002F0B0FC0BE0608D20850020009094F858
:1011400028204FF000734946204602F0A3FC608D32
:101150000028B9D12A463146204602F0E4FC08B105
:1011600001205EE720202168C861206840680949A5
:10117000084021684860202084F84100002084F85D
:10118000420000BF84F8400000BF4AE7022048E761
:101190000024008000E800FE3CBCBDE8C09F0000C9
:1011A0002DE9FC5F0446894692469B46DDE90C78B2
:1011B0000E9E94F8410020287DD117B1B8F1000FA0
:1011C00005D14FF400706064012000F0B5B800BF95
:1011D00094F84000012801D10220F6E7012084F8AC
:1011E000400000BFFFF718FE054619230122D10376
:1011F0002046009502F068FC08B10120E5E72120B7
:1012000084F84100402084F8420000206064676256
:10121000A4F82A8060635B46524649462046CDE9E1
:10122000006502F0F9FB30B100BF002084F84000F7
:1012300000BF0120C9E7608DFF280CD9FF20208561
:101240000020009094F828204FF0807349462046F3
:1012500002F020FC0BE0608D20850020009094F8C7
:1012600028204FF000734946204602F013FC00BFCF
:101270002A463146204602F081FC08B10120A4E74D
:10128000606A007821688862606A401C6062608DD4
:10129000401E6085208D401E2085608D40B3208DCE
:1012A00030BB3346002280212046009502F00CFC22
:1012B00010B1012089E73AE0608DFF280CD9FF20AA
:1012C00020850020009094F828204FF08073494634
:1012D000204602F0DFFB0BE0608D208500200090AF
:1012E00094F828204FF000734946204602F0D2FBC4
:1012F000608D0028BCD12A463146204602F013FCFE
:1013000008B1012061E720202168C8612068406899
:101310000849084021684860202084F841000020E6
:1013200084F8420000BF84F8400000BF4DE702206F
:101330004BE7000000E800FE3CBCBDE8C09F000099
:1013400070B5044600252F4920680968884211D1EC
:1013500000BF2D48806B40F400102B49886308467D
:10136000806B20F4001088630846806D20F4001024
:10137000886519E023492068D1F8A810884211D166
:1013800002252148806B40F400001F49886308460D
:10139000806B20F4000088630846806D20F4000014
:1013A000886501E005F0D0F9C5EBC50202EB420209
:1013B000144B03EB820292F8502002F00F0301223B
:1013C0009A40C5EBC50303EB43030E4E06EB8303C4
:1013D00093F8523003F00F060123B34042EA0301B1
:1013E000C5EBC50202EB4202064B03EB820292F808
:1013F000502002F0F0024FF0904303EB8210FFF711
:101400002BFB70BD640000200010024030B587B097
:101410000446544920680968884230D1514890F800
:10142000500000F0F0004FF0904101EB80151422C5
:101430004D4902A8FEF774FF4A4890F8520000F0A8
:101440000F0101208840474991F8501001F00F0228
:10145000012191400843029002A92846FFF7CCFBE6
:1014600000BF4248806D40F400104049886508463E
:10147000806D00F40010019000BF00BF70E039499A
:101480002068496D884231D1364890F8A40000F0B8
:10149000F0004FF0904101EB8015142232491431D5
:1014A00002A8FEF73DFF2F4890F8A60000F00F01BC
:1014B000012088402B4991F8A41001F00F0201216E
:1014C00091400843029002A92846FFF795FB00BF10
:1014D0002648806D40F48000244988650846806D68
:1014E00000F48000019000BF00BF39E01D49206872
:1014F000D1F8A810884231D11A4890F8F80000F0CD
:10150000F0004FF0904101EB80151422164928316C
:1015100002A8FEF705FF134890F8FA0000F00F014B
:10152000012088400F4991F8F81001F00F020121C5
:1015300091400843029002A92846FFF75DFB00BFD7
:101540000A48806D40F40000084988650846806DAF
:1015500000F40000019000BF00BF01E005F0F4F8C6
:1015600007B030BD6400002064A3000800100240F2
:101570000348006803490968084401490860704746
:10158000300000203800002010B50024032000F0B7
:10159000E9F9002000F008F808B1012401E000F0AA
:1015A00047F9204610BD000070B5044600251148DB
:1015B0000068D8B10F4800684FF47A71B1FBF0F0C1
:1015C0000D490968B1FBF0F6304601F08CFE58B9C0
:1015D000102C07D200222146501E00F081F9074846
:1015E000046004E0012502E0012500E00125284611
:1015F00070BD0000380000203C00002034000020B6
:1016000070477047704770477047704710B5044681
:101610002068006800F0010050B12068806800F088
:10162000010028B10120216848602046FFF7EAFF49
:1016300020680068C0F3400050B120688068C0F3A3
:10164000400028B10220216848602046FFF7D8FFFB
:1016500020680068C0F3800050B120688068C0F343
:10166000800028B1042021684860204600F0DFF89F
:1016700020680068C0F3C00050B120688068C0F3E3
:10168000C00028B10820216848602046FFF7BBFF52
:1016900020680068C0F3001050B120688068C0F373
:1016A000001028B11020216848602046FFF7A9FFEC
:1016B00020680068C0F3401050B120688068C0F313
:1016C000401028B12020216848602046FFF79DFF88
:1016D00020680068C0F3801050B120688068C0F3B3
:1016E000801028B14020216848602046FFF78CFF19
:1016F00010BD000070B504460CB9012070BD6068D3
:10170000012800D100BF4FF6FF716069884200D008
:1017100000BF94F8360028B9002084F83500204630
:1017200000F050F8022084F836002068C568606830
:10173000012803D0A06AB0F5000F01D125F01E05E5
:101740004FF6FF716069884202D04EF2C0008543B7
:101750001A480540D4E901010843216A0843616A37
:101760000843A16A084305436068012803D0A06AC2
:10177000B0F5000F03D1D4E90310084305434FF639
:10178000FF716069884205D0D4E905100843E1691A
:10179000084305432068C56009492068884205D18F
:1017A000D4E90B0108432168086202E02168E06A7D
:1017B0000862012084F8360000209FE7F8F119FF45
:1017C000007C004038B504460D492068884215D198
:1017D00000BF0C48806D40F000400A49886508460B
:1017E000806D00F00040009000BF00BF0022114655
:1017F000412000F075F8412000F062F838BD00008B
:10180000007C00400010024010B50446022084F81D
:101810003600204602F0F4F92068C06820F4002069
:101820002168C860012084F83600002010BD704790
:1018300008B500BF2148006E40F001001F4908664E
:101840000846006E00F00100009000BF00BF00BF1E
:101850000846806D40F0805088650846806D00F035
:101860008050009000BF00BF032000F07BF80022F2
:1018700011466FF00B0000F033F8002211466FF0B4
:101880000A0000F02DF8002211466FF0090000F068
:1018900027F800221146501F00F022F800221146BE
:1018A000101F00F01DF800221146901E00F018F8DD
:1018B00000221146501E00F013F808BD001002402F
:1018C00001460846002809DB00F01F0301229A4068
:1018D00043099B0003F1E023C3F8002100BF7047D8
:1018E0002DE9F05F80460D461646002703F0AAF862
:1018F000074639462A46334601F00700C0F1070A79
:10190000BAF1040F02D94FF0040A01E0C0F1070A4E
:10191000D14600F1040ABAF1070F02D24FF0000AD3
:1019200001E0A0F1030AD4464FF0010A0AFA09FACD
:10193000AAF1010A0AEA020A0AFA0CFA4FF0010BAC
:101940000BFA0CFBABF1010B0BEA030B4AEA0B049D
:101950002146404603F07EF800F000B830BCBDE8F8
:10196000C09F000000BF00F00702064B19684FF649
:10197000FF031940044B0B4343EA0221014B19605A
:1019800000BF70470CED00E00000FA050D49096842
:1019900021F00701891C0B4A11600B49096841F0CD
:1019A0000401094A1160012801D130BF02E040BFA3
:1019B00020BF20BF0449096821F00401024A1160D8
:1019C000704700000070004010ED00E00248006821
:1019D00000F4C060704700000070004001462B48D2
:1019E000406820F00E000A681043284A50602848DA
:1019F000006820F48030264A1060101F006820F430
:101A00008030121F106022480830006820F48030B7
:101A10001F4A08321060101F006820F48030121F27
:101A20001060486800F48030B0F5803F07D1184856
:101A3000001F006840F48030154A121F106048688B
:101A400000F40030B0F5003F05D11148006840F4C3
:101A500080300F4A1060087900F0010038B10C485E
:101A6000001D006840F48030094A121D106008799A
:101A700000F00200022807D105480830006840F451
:101A80008030034A08321060002070470070004028
:101A9000040401400348406840F0010001494860E7
:101AA00070470000007000402DE9F843044600250F
:101AB000A846208800F40060B0F5006F30D1606E59
:101AC00080B1B0F5800F13D0B0F5000F03D0B0F5A2
:101AD000400F15D113E0FB48C06840F48030F9494D
:101AE000C8600FE00021201D02F09EF9054609E0C4
:101AF000002104F1200002F05DFA054602E001E059
:101B0000012500BF00BF55B9EE488830006820F4B9
:101B10004000616E0843EB49C1F8880000E0A84628
:101B2000208800F48050B0F5805F30D1A06E80B185
:101B3000B0F1807F13D0B0F1007F03D0B0F1407FCF
:101B400015D113E0DF48C06840F48030DD49C8603B
:101B50000FE00021201D02F067F9054609E0002191
:101B600004F1200002F026FA054602E001E001251A
:101B700000BF00BF55B9D3488830006820F04070DE
:101B8000A16E0843CF49C1F8880000E0A84620684C
:101B900000F40030B0F5003F77D14FF00009C9489C
:101BA000806D012121EA107078B100BFC548806DB9
:101BB00040F08050C34988650846806D00F0805031
:101BC000009000BF00BF4FF00109BF48006840F41B
:101BD0008070BD490860FFF71FF9074606E0FFF770
:101BE0001BF9C01B022801D9032505E0B64800688F
:101BF00000F480700028F2D000BF85BBB14890305F
:101C0000006800F44076D6B1D4F88400B04216D013
:101C1000AC489030006820F44076AA48D0F8900094
:101C200040F48030A749C1F890000846D0F89000F1
:101C300020F48030C1F890000846C0F8906006F0AB
:101C40000100A8B1FFF7E8F8074609E0FFF7E4F85C
:101C5000C01B41F28831884202D9032507E017E012
:101C600098489030006800F002000028EED000BFD5
:101C700065B994489030006820F44070D4F884101E
:101C800008439049C1F8900003E00CE0A84600E04A
:101C9000A846B9F1010F05D18A48806D20F0805027
:101CA0008849886500BF207800F0010048B1854868
:101CB0008830006820F00300A16B08438149C1F817
:101CC0008800207800F00200022809D17D48883081
:101CD000006820F00C00E16B08437A49C1F88800E5
:101CE000207800F00400042809D176488830006884
:101CF00020F03000216C08437249C1F88800207838
:101D000000F00800082809D16E488830006820F0EB
:101D1000C000616C08436B49C1F88800207800F06E
:101D20001000102809D167488830006820F44070FE
:101D3000A16C08436349C1F88800207800F02000B6
:101D4000202809D15F488830006820F44060E16CA9
:101D500008435C49C1F88800208800F40070B0F5A1
:101D6000007F09D157488830006820F44020E16D99
:101D700008435449C1F88800208800F48060B0F519
:101D8000806F09D14F488830006820F44010216EE0
:101D900008434C49C1F88800207800F040004028F2
:101DA00009D148488830006820F44050216D08432C
:101DB0004449C1F88800207800F08000802809D1CB
:101DC00040488830006820F44040616D08433D4938
:101DD000C1F88800208800F48070B0F5807F09D1B8
:101DE00038488830006820F44030A16D08433549F8
:101DF000C1F88800208800F40050B0F5005F1FD1C2
:101E000030488830006820F04060E16E08432D497A
:101E100088310860E06EB0F1006F06D12948C068D3
:101E200040F480102749C8600AE0E06EB0F1806F8E
:101E300006D10121201D01F0F7FF054605B1A84696
:101E4000206800F40020B0F5002F1FD11D48883015
:101E5000006820F04060216F08431A49883108600B
:101E6000206FB0F1006F06D11648C06840F48010B2
:101E70001449C8600AE0206FB0F1806F06D10121DB
:101E8000201D01F0D1FF054605B1A846206800F4E9
:101E90008020B0F5802F24D10A488830006820F0D7
:101EA0004060616F0843074988310860606FB0F196
:101EB000006F0BD10348C06840F480100149C8602E
:101EC0000FE000000010024000700040606FB0F1B1
:101ED000806F06D10121201D01F0A6FF054605B146
:101EE000A846208800F48040B0F5804F1FD12248DA
:101EF000006820F04050A16F08431F490860A06FA0
:101F0000B0F1805F07D10221201D01F08DFF054651
:101F10006DB1A8460BE0A06FB0F1005F07D10221C0
:101F200004F1200002F046F8054605B1A8462088D5
:101F300000F40040B0F5004F09D10F48006820F0D0
:101F40008040E16F08430C498839C1F88800206857
:101F500000F48030B0F5803F0AD10748006820F0D7
:101F60000040D4F88010084303498839C1F888003C
:101F70004046BDE8F8830000881002402DE9F0419A
:101F800004460D4614B90120BDE8F08155480068AB
:101F900000F00700A8420ED25248006820F0070067
:101FA0002843504908600846006800F00700A8422E
:101FB00001D00120E8E7207800F00100002840D09F
:101FC0006068032806D14848006800F00070D8B95E
:101FD0000120D9E76068022806D14348006800F470
:101FE000003088B90120CFE7606830B93E4800680A
:101FF00000F0020040B90120C6E73B48006800F449
:10200000806008B90120BFE73748806820F00300EE
:102010006168084334498860FEF7FEFE064608E022
:10202000FEF7FAFE801B41F28831884201D9032075
:10203000AAE72D48806800F00C006168B0EB810FC2
:10204000EED1207800F00200022807D126488068EF
:1020500020F0F000A1680843234988602148006807
:1020600000F00700A8420ED91E48006820F00700C3
:1020700028431C4908600846006800F00700A84291
:1020800001D0012080E7207800F00400042807D167
:102090001548806820F4E060E168084312498860D0
:1020A000207800F00800082808D10F48806820F444
:1020B0006050216940EAC1000B49886000F046F891
:1020C00009498968C1F30311084A515C01F01F01F5
:1020D000C8400749086007480068FFF765FA0746E7
:1020E000384651E70020024000100240D8A2000804
:1020F0003C000020340000200148006870470000C8
:102100003C00002000B5FFF7F7FF05498968C1F3DF
:102110000221044A515C01F01F01C84000BD0000CB
:1021200000100240E8A2000800B5FFF7E5FF0549EE
:102130008968C1F3C221044A515C01F01F01C84003
:1021400000BD000000100240E8A20008F0B5002326
:102150000020DFF8D4C0DCF808C00CF00C01DFF878
:10216000C8C0DCF80CC00CF0030719B10C291ED153
:10217000012F1CD1DFF8B0C0DCF800C00CF0080C57
:10218000BCF1000F06D1DFF8A0C0DCF894C0CCF39E
:10219000032305E0DFF890C0DCF800C0CCF30313A4
:1021A000DFF888C05CF8233041B9184606E00429FE
:1021B00001D11F4802E0082900D11E480C2932D164
:1021C000DFF864C0DCF80CC00CF00304012C09D06B
:1021D000022C02D0032C04D101E0154A04E0154A78
:1021E00002E000BF1A4600BF00BFDFF83CC0DCF8C9
:1021F0000CC0CCF3021C0CF10106DFF82CC0DCF89B
:102200000CC0CCF3062C0CFB02FCBCFBF6F2DFF896
:1022100018C0DCF80CC0CCF3416C0CF1010C4FEA97
:102220004C05B2FBF5F0F0BD00100240F0A2000832
:102230000024F40000127A002DE9F843044614B992
:102240000120BDE8F883F948806800F00C07F748E2
:10225000C06800F00306207800F01000102876D146
:102260001FB10C2F75D1012E73D1F048006800F01A
:10227000020018B1A06908B90120E2E7EB48216A21
:10228000006800F0080020B1E848006800F0F000A5
:1022900005E0E6489430006800F47060000981426F
:1022A0001FD9206A01F038FF08B10120C9E700BF3B
:1022B000DE48006840F00800DC4908600846006815
:1022C00020F0F000216A0843D849086000BF0846A2
:1022D000406820F47F40E16940EA0120D34948602A
:1022E0001EE000BFD148006840F00800CF490860F8
:1022F0000846006820F0F000216A0843CB490860D6
:1023000000BF0846406820F47F40E16940EA0120B0
:10231000C6494860206A01F0FFFE08B1012090E73D
:10232000FFF714FFC1498968C1F30311C04A515C2A
:1023300001F01F01C840BF490860BF480068FFF7AF
:1023400033F98046B8F1000F4ED0404679E74BE0B4
:10235000FFE7A06980B3B548006840F00100B349C9
:102360000860FEF759FD054606E0FEF755FD401BE7
:10237000022801D9032064E7AC48006800F002009D
:102380000028F2D000BFA948006840F00800A74923
:1023900008600846006820F0F000216A0843A3495D
:1023A000086000BF0846406820F47F40E16940EAC9
:1023B00001209E49486017E0FFE79C48006820F034
:1023C00001009A490860FEF727FD054606E0FEF782
:1023D00023FD401B022801D9032032E793480068FF
:1023E00000F002000028F2D1207800F0010000285F
:1023F0005CD0082F03D00C2F0AD1032E08D18B48B4
:10240000006800F4003088B3606878BB012018E7EA
:1024100000BF6068B0F5803F06D18448006840F492
:102420008030824908601AE06068B0F5A02F0BD1B7
:102430007E48006840F480207C49086008460068B7
:1024400040F4803008600AE07848006820F480306A
:10245000764908600846006820F48020086000BFC4
:10246000606890B1FEF7D8FC054607E01EE0FEF775
:10247000D3FC401B642801D90320E2E66B480068C6
:1024800000F400300028F2D010E0FEF7C5FC05464D
:1024900006E0FEF7C1FC401B642801D90320D0E60A
:1024A0006248006800F400300028F2D1207800F083
:1024B0000200022852D1042F03D00C2F14D1022E77
:1024C00012D15A48006800F4806018B1E06808B979
:1024D0000120B6E65548406820F0F850217C40EADB
:1024E00001605249486039E0E06800B34F48006835
:1024F00040F480704D490860FEF78EFC054606E00A
:10250000FEF78AFC401B022801D9032099E64748C0
:10251000006800F480600028F2D04448406820F051
:10252000F850217C40EA01604049486016E03F488D
:10253000006820F480703D490860FEF76DFC054698
:1025400006E0FEF769FC401B022801D9032078E66B
:102550003648006800F480600028F2D1207800F04E
:102560000800082836D16069D0B13048943000683E
:1025700040F001002D49C1F89400FEF74DFC0546DE
:1025800006E0FEF749FC401B022801D9032058E66B
:1025900026489430006800F002000028F1D019E0CD
:1025A00022489430006820F001002049C1F89400CE
:1025B000FEF732FC054606E0FEF72EFC401B022823
:1025C00001D903203DE619489430006800F002006C
:1025D0000028F1D1207800F00400042873D14FF0D6
:1025E00000091248806D00F0805078B900BF0F4894
:1025F000806D40F080500D4988650846806D00F080
:102600008050009000BF00BF4FF001090B480068E8
:1026100000F4807008BB0948006840F480700749E6
:102620000860FEF7F9FB054611E0000000100240CB
:10263000D8A200083C0000203400002000700040B8
:10264000FEF7EAFB401B022801D90320F9E599486F
:10265000006800F480700028F2D000BFA068012854
:1026600008D19548006840F0010093499039C1F8BD
:10267000900021E0A06805280FD18F48006840F045
:1026800004008D499039C1F890000846D0F89000B8
:1026900040F00100C1F890000EE08748006820F08B
:1026A000010085499039C1F890000846D0F89000A3
:1026B00020F00400C1F8900000BFA068A0B1FEF7B0
:1026C000ABFB054609E02EE0FEF7A6FB401B41F2FE
:1026D0008831884201D90320B3E57748006800F0CB
:1026E00002000028F0D012E0FEF796FB054608E055
:1026F000FEF792FB401B41F28831884201D903204A
:102700009FE56D48006800F002000028F0D1B9F1A3
:10271000010F07D168489038806D20F080506649DD
:102720009039886500BFA06A00285BD00C2F78D054
:10273000A06A022857D160489038006820F0807065
:102740005D4990390860FEF767FB054606E0FEF735
:1027500063FB401B022801D9032072E556489038DC
:10276000006800F000700028F1D1D4E90B10401E81
:1027700041EA0011606B41EA0021A08F0122C2EB07
:10278000500041EA40514020005DC2EB500041EA58
:102790004061A06B000941EA404047499039C9684F
:1027A000464A1140084344499039C86008460068C9
:1027B00040F0807008600846C06840F08070C860D3
:1027C000FEF72AFB054606E0FEF726FB401B022823
:1027D00001D9032035E538489038006800F00070D2
:1027E0000028F1D064E034489038006820F0807010
:1027F0003149903908600846006800F0205020B93F
:102800000846C06820F00300C8602B489038C068B4
:102810002B49084028499039C860FEF7FDFA054663
:1028200007E00EE0FEF7F8FA401B022801D903206A
:1028300007E521489038006800F000700028F1D1C9
:1028400036E0A06A012800D1FBE41B489038C66836
:1028500006F00301E06A814228D106F07001206B86
:10286000401EB1EB001F21D106F4FE41606BB1EBBD
:10287000002F1BD106F40031A06B072801D00120E6
:1028800000E00020814211D106F4C001A08F012296
:10289000C2EB5000B1EB405F08D106F0C0614020B0
:1028A000005DC2EB5000B1EB406F01D00120C8E4E5
:1028B0000020C6E400700040901002408C809DF91A
:1028C000FFFFEEFE014600BF91F82000012801D174
:1028D00002207047012081F8200000BF022081F80B
:1028E000210000BFCA200A68506253200A68506263
:1028F00000BF0868806840F020000A68906000BF50
:10290000FF200A68506200BF012081F8210000BF4B
:10291000002081F8200000BF00BFDAE77047000008
:1029200010B504464FF480100A4908602068C0685A
:10293000C0F3802050B12068C06800F0800060F4CF
:1029400090602168C8602046FFF7E8FF012084F806
:10295000210010BD1404014010B5044607F09AF898
:1029600010BD70B504460D4600BF94F82000012844
:1029700001D1022070BD012084F8200000BF022098
:1029800084F8210000BFCA202168486253202168D2
:10299000486200BFB5F5807F2BD12068806820F4A5
:1029A0008070216888602068806820F480502168E9
:1029B0008860FEF731FA064614E0FEF72DFA801B18
:1029C000B0F57A7F0ED900BFFF202168486200BFB2
:1029D000032084F8210000BF002084F8200000BFFD
:1029E0000320C7E72068C06800F001000028E4D099
:1029F0002BE02068806820F40070216888602068DF
:102A0000806820F4005021688860FEF705FA0646C9
:102A100014E0FEF701FA801BB0F57A7F0ED900BFF3
:102A2000FF202168486200BF032084F8210000BF16
:102A3000002084F8200000BF03209BE72068C068C6
:102A4000C0F340000028E4D000BF00BFFF20216891
:102A5000486200BF012084F8210000BF002084F8F4
:102A6000200000BF00BF85E770B505460B4616463F
:102A7000286840680E4900EA0104200CD870C4F3AD
:102A80000420587004F03F009870C4F3423018706E
:102A90005EB9D87801F0AEFBD870587801F0AAFB87
:102AA0005870987801F0A6FB9870002070BD000067
:102AB0003FFFFF0070B504460B4616462068806A4B
:102AC000586020680069C0F30E00986020680068B4
:102AD0000E4900EA0105C5F305401870C5F306204C
:102AE000587005F07F009870A80DD8705EB91878FE
:102AF00001F080FB1870587801F07CFB58709878D2
:102B000001F078FB9870002070BD00007F7F7F008F
:102B100070B504460125002C4FD094F8210028B947
:102B2000002084F82000204600F04CF8022084F8B1
:102B3000210000BFCA2021684862532021684862F2
:102B400000BF204601F06EFB0546002D35D1206800
:102B500080681B49084021688860216960680843D3
:102B6000A169084321688968084321688860216851
:102B7000E068086120680169208941EA0040216815
:102B80000861204601F070FB0546B5B92068C06CAD
:102B900020F003002168C8646169E0690843216886
:102BA000C96C08432168C86400BFFF2021684862DF
:102BB00000BF15B9012084F82100284670BD00002F
:102BC000BFFF8FFF10B504460848006840F400407E
:102BD00006499039C1F89000002211460320FEF703
:102BE0007FFE0320FEF76CFE10BD00009010024037
:102BF0002DE9F04704460D46904600BF94F82000AA
:102C0000012802D10220BDE8F087012084F82000CD
:102C100000BF022084F82100B8F1000F2AD12068FB
:102C2000806800F0400000B102E00020E87000BFC2
:102C3000E86900B900E000BF287801F0E5FA4FEA42
:102C40000049687801F0E0FA49EA0029A87801F023
:102C5000DBFA49EA0009E87849EA805995F820004A
:102C600001F0D2FA49EA0060E9690843696940EA7B
:102C700001061BE02068806800F0400000B102E01F
:102C80000020E87000BF28780004697840EA01203D
:102C9000A9780843E97840EA815095F8201040EA85
:102CA0000160E9690843696940EA0106A969686841
:102CB00040EA010700BFCA2021684862532021680A
:102CC000486200BF686AB0F5807F3ED120688068A6
:102CD00020F48070216888602068C06800F080005F
:102CE00060F4C0702168C860FEF796F8814615E070
:102CF000FEF792F8A0EB0900B0F57A7F0ED900BF7D
:102D0000FF202168486200BF032084F8210000BF33
:102D1000002084F8200000BF032074E72068C0680A
:102D200000F001000028E3D02068C66120684764F5
:102D30002068806840F4807021688860206880681E
:102D400040F48050216888603EE02068806820F46C
:102D50000070216888602068C06800F0800060F41E
:102D600020702168C860FEF757F8814615E0FEF72D
:102D700053F8A0EB0900B0F57A7F0ED900BFFF2011
:102D80002168486200BF032084F8210000BF0020B2
:102D900084F8200000BF032035E72068C068C0F336
:102DA00040000028E3D0206806622068876420681D
:102DB000806840F40070216888602068806840F472
:102DC00000502168886000BF0E48006840F48020F1
:102DD0000C4908600B480830006840F4802009491D
:102DE0000831086000BFFF202168486200BF012051
:102DF00084F8210000BF002084F8200000BF00BF3D
:102E000001E70000000401402DE9F04705460C46AB
:102E1000174600BF95F82000012802D10220BDE826
:102E2000F087012085F8200000BF022085F82100EE
:102E30004FB9607800F01000102804D1607800F0DD
:102E4000EF000A30607097B9E07801F0DDF94FEAE1
:102E50000049607801F0D8F949EA0029A07801F02A
:102E6000D3F949EA0009207849EA403809E0E078D6
:102E70000004617840EA0120A1780843217840EA03
:102E8000413800BFCA202968486253202968486237
:102E900000BF284601F0C6F9064646B90C4808EAC4
:102EA000000029684860284601F0DEF9064600BFA8
:102EB000FF202968486200BF16B9012085F821006B
:102EC00000BF002085F8200000BF3046A7E70000C3
:102ED0003FFFFF002DE9F04704460D46904600BF36
:102EE00094F82000012802D10220BDE8F0870120DB
:102EF00084F8200000BF022084F8210000BFCA200F
:102F00002168486253202168486200BF204601F0D2
:102F100089F90646002E47D1B8F1000F1BD1206871
:102F2000806800F0400000B102E00020E87000BFBF
:102F3000287801F069F94FEA0049687801F064F9EE
:102F400049EA0029A87801F05FF949EA0009E87820
:102F500049EA805712E02068806800F0400000B124
:102F600002E00020E87000BF28780004697840EA99
:102F70000120A9780843E97840EA8157124838408F
:102F8000216808602068806820F4802021688860BB
:102F9000D5E90301084321688968084321688860EE
:102FA000204601F061F9064600BFFF202168486213
:102FB00000BF16B9012084F8210000BF002084F86A
:102FC000200000BF304690E77F7F7F0070B5044649
:102FD0002068C06820F0A0002168C860FDF71CFFD1
:102FE000054607E0FDF718FF401BB0F57A7F01D9D1
:102FF000032070BD2068C06800F020000028F1D0D8
:103000000020F6E710B504460CB9012010BD0220DF
:1030100084F85D002068006820F0400021680860A6
:10302000204600F06BF80020206684F85D0000BFA9
:1030300084F85C0000BF00BFE8E770B504460CB937
:10304000012070BD606A00B900BF0021A16294F840
:103050005D0028B9002084F85C00204600F0A4F848
:10306000022084F85D002068006820F0400021689C
:103070000860E068B0F5E06F01D9002501E04FF489
:103080008055E068B0F5706F05D0E068B0F5E06F8E
:1030900001D00021A162206B40B9E068B0F5E06F7B
:1030A00002D90221216301E001212163D4E9010158
:1030B00008432169084361690843218B01F40071C9
:1030C0000843E1690843216A0843A16A084321686B
:1030D00008600421A06901EA1040616A0843616B3D
:1030E0000843E168084328432168486000202066BF
:1030F000012084F85D000020A3E7000070B50546BC
:103100000024274928680968884206D12548006EAE
:1031100020F48050234908660EE021492868096F91
:10312000884207D101241F48806D20F480401D494A
:10313000886501E003F008FBC4EBC402184B03EB05
:10314000021292F8682002F00F0301229A40C4EBA9
:10315000C403134E06EB031393F86A3003F00F0613
:103160000123B3401A43C4EBC4030D4E06EB031313
:1031700093F86C3003F00F060123B34042EA0301D9
:10318000C4EBC402064B03EB021292F8682002F073
:10319000F0024FF0904303EB8210FDF75DFC70BD31
:1031A000640100200010024030B587B00446404959
:1031B00020680968884238D13D4890F8680000F0DE
:1031C000F0004FF0904101EB80151422394902A81C
:1031D000FDF7A6F8364890F8680000F00F010120CE
:1031E0008840334991F86A1001F00F0201219140A3
:1031F00008432F4991F86C1001F00F020121914012
:103200000843029002A92846FDF7F6FC00BF2A48B1
:10321000006E40F48050284908660846006E00F4AD
:103220008050019000BF00BF40E021492068096F35
:10323000884239D11E4890F8D80000F0F0004FF0D5
:10324000904101EB801514221A49143102A8FDF7B0
:1032500067F8174890F8D80000F00F010120884067
:10326000134991F8DA1001F00F020121914008434F
:103270000F4991F8DC1001F00F0201219140084341
:10328000029002A92846FDF7B7FC00BF0A48806DEE
:1032900040F48040084988650846806D00F480400D
:1032A000019000BF00BF01E003F04EFA07B030BD4F
:1032B00064010020C8A3000800100240042808D1BF
:1032C0004FF0E021096941F004014FF0E022116163
:1032D00007E04FF0E021096921F004014FF0E022FE
:1032E00011617047704770B504462546681EB0F1FD
:1032F000807F01D301200FE0681E4FF0E02148617C
:103300000F214FF0FF3001F0A5FB00204FF0E0212E
:10331000886107200861002070BD10B5FFF7E2FF4B
:1033200010BD704710B504460CB9012010BD242013
:1033300060672068006820F00100216808600020B4
:10334000216808602168486021688860204600F094
:103350000DF90020E0676067A06700BF84F8700087
:1033600000BF00BFE2E770472DE9F0470446206840
:10337000C569206806682068876805F00F08B8F1FD
:10338000000F0CD105F0200048B106F0200030B14C
:10339000206E10B12046216E8847BDE8F087B8F155
:1033A000000F71D007F0010018B906F490700028E2
:1033B00079D005F0010048B106F4807030B10120E9
:1033C00021680862E06F40F00100E06705F002004C
:1033D00048B107F0010030B1022021680862E06FB7
:1033E00040F00400E06705F0040048B107F0010078
:1033F00030B1042021680862E06F40F00200E0670D
:1034000005F0080060B106F0200010B907F00100D7
:1034100030B1082021680862E06F40F00800E067E2
:10342000E06F80B305F0200038B106F0200020B135
:10343000206E10B12046216E8847D4F87C90206819
:10344000806800F04000402802D009F0080020B356
:10345000204601F032F82068806800F040004028E3
:1034600017D12068806820F0400021688860E06EF5
:1034700058B12048E16E8863E06EFDF7ABFA10B1F9
:10348000E06E816B88470DE00DE02046FFF76BFF93
:1034900008E02046FFF767FF04E02046FFF763FFE0
:1034A0000020E06779E705F4801050B107F4800050
:1034B00038B14FF48010216808622046FFF731FFD1
:1034C0006BE705F0800040B106F0800028B1606E27
:1034D00010B12046616E88475FE705F0400030B1CB
:1034E00006F0400018B1204600F0F8FF55E700BF95
:1034F00053E70000A344000810B504460CB90120AE
:1035000010BDA06900B100E000BF606F28B90020C5
:1035100084F87000204600F083F82420606720685B
:10352000006820F0010021680860204600F0E6FFF6
:10353000012800D1E4E7606A10B1204600F0FEFEE9
:103540002068406820F490402168486020688068C6
:1035500020F02A00216888602068006840F001009F
:1035600021680860204600F065FFC9E770B5044691
:103570000025294920680968884206D12748006E3D
:1035800020F48040254908661DE023492068D1F8D1
:103590008810884207D101252048806D20F4003032
:1035A0001E4988650FE01C492068D1F81011884237
:1035B00007D102251948806D20F4802017498865BD
:1035C00001E003F0C1F805EB0512134B03EBC20257
:1035D00092F8842002F00F0301229A4005EB0513B4
:1035E0000D4E06EBC30393F8863003F00F0601235C
:1035F000B34042EA030105EB0512074B03EBC2029D
:1036000092F8842002F0F0024FF0904303EB821016
:10361000FDF722FA70BD00004C02002000100240AD
:1036200030B587B00446614920680968884238D1BE
:103630005E4890F8840000F0F0004FF0904101EBFC
:10364000801514225A4902A8FCF76AFE574890F8E0
:10365000840000F00F0101208840544991F8861041
:1036600001F00F02012191400843029002A928466F
:10367000FDF7C2FA012200212520FEF731F92520AD
:10368000FEF71EF900BF4B48006E40F480404949E8
:1036900008660846006E00F48040019000BF00BF3D
:1036A00081E042492068D1F88810884239D13F48EA
:1036B00090F80C0100F0F0004FF0904101EB801504
:1036C00014223B49143102A8FCF72AFE374890F82F
:1036D0000C0100F00F0101208840344991F80E11CF
:1036E00001F00F02012191400843029002A92846EF
:1036F000FDF782FA012200212620FEF7F1F82620AC
:10370000FEF7DEF800BF2B48806D40F400302949F9
:1037100088650846806D00F40030019000BF00BF4E
:1037200041E022492068D1F81011884239D11F4860
:1037300090F8940100F0F0004FF0904101EB8015FB
:1037400014221B49283102A8FCF7EAFD174890F81B
:10375000940100F00F0101208840144991F896115E
:1037600001F00F02012191400843029002A928466E
:10377000FDF742FA012200212720FEF7B1F82720A9
:10378000FEF79EF800BF0B48806D40F48020094989
:1037900088650846806D00F48020019000BF00BF5E
:1037A00001E002F0D1FF07B030BD00004C02002064
:1037B000F0A30008001002402DE9F84F04460E4621
:1037C00017469946606F20285CD106B117B90120D1
:1037D00000F05AB800BF94F87000012801D102200F
:1037E000F6E7012084F8700000BF0020E067212088
:1037F0006067FDF711FB8246A4F85070A4F8527080
:10380000A068B0F5805F04D1206910B90025B046EA
:1038100002E035464FF000081DE0534600228021AB
:103820002046CDF8009001F0AEF808B10320CFE7B4
:1038300045B9B8F80000C0F308002168088508F110
:10384000020803E02878216808856D1CB4F852004E
:10385000401EA4F85200B4F852000028DDD15346AF
:10386000002240212046CDF8009001F08CF808B1EC
:103870000320ADE72020606700BF002084F87000BF
:1038800000BFA5E70220A3E718BCBDE8E08F7047A2
:1038900000BF07A003F0D6F807A003F0D3F808A0F4
:1038A00003F0D0F80BA003F0CDF800BF00BFFEE797
:1038B0001B5B303B33316D004552524F523A200072
:1038C000486172644661756C745F48616E646C65D2
:1038D000720A0D001B5B306D0000000001688969F1
:1038E000C1F3400111B10021026891620168896948
:1038F00001F0010129B90168896941F001010268FB
:103900009161704770B504460D461646206880697F
:10391000C0F3001000283DD017E0681CA8B1FDF7E7
:103920007BFA801BA84200D87DB9606C40F0200073
:103930006064202084F84100002084F8420000BF29
:1039400084F8400000BF012070BD20688069C0F38A
:1039500040100028E1D010202168C8612020216893
:10396000C8612046FFF7BAFF206840680A4908404E
:1039700021684860606C40F004006064202084F896
:103980004100002084F8420000BF84F8400000BFDE
:103990000120D9E70020D7E700E800FE2DE9F84331
:1039A0000446894615461E46DDE908781948F2B2F4
:1039B000002349460090204600F06CF84246394604
:1039C000204600F0DBF810B10120BDE8F883012E9D
:1039D00003D1E8B2216888620EE0C5F307202168B0
:1039E000886242463946204600F0C8F808B10120F6
:1039F000EBE7E8B2216888623B460022402120467E
:103A0000CDF8008000F060F808B10120DDE700206B
:103A1000DBE70000002000802DE9F84304468946DA
:103A200015461E46DDE908781948F2B2C302494638
:103A30000090204600F02EF842463946204600F01D
:103A40009DF810B10120BDE8F883012E03D1E8B242
:103A5000216888620EE0C5F307202168886242462B
:103A60003946204600F08AF808B10120EBE7E8B2B9
:103A7000216888623B46002280212046CDF80080E4
:103A800000F022F808B10120DDE70020DBE70000AC
:103A900000200080F0B5059C05686D684FF48066D5
:103AA00006EA545666F0FC2646F4C046B543C1F318
:103AB00009064FF47F0707EA02473E431E432643A9
:103AC000354306687560F0BD2DE9F04104460E46A9
:103AD00017461D46DDF8188019E0681CB8B1FDF7DF
:103AE0009BF9A0EB0800A84200D885B9606C40F0B3
:103AF00020006064202084F84100002084F8420007
:103B000000BF84F8400000BF0120BDE8F0812068BC
:103B100080693040B04201D1012000E00020B8426D
:103B2000DBD00020F1E770B504460D4616461DE0D7
:103B3000324629462046FFF7E5FE08B1012070BD58
:103B4000FDF76AF9801BA84200D87DB9606C40F08F
:103B500020006064202084F84100002084F84200A6
:103B600000BF84F8400000BF0120E8E720688069BA
:103B7000C0F340100028DBD00020E0E770B5044619
:103B80000D4616461FE0324629462046FFF7BAFE8C
:103B900008B1012070BD681CA8B1FDF73DF9801B7C
:103BA000A84200D87DB9606C40F0200060642020FD
:103BB00084F84100002084F8420000BF84F84000EF
:103BC00000BF0120E6E720688069C0F340000028BC
:103BD000D9D00020DEE7000010B50748FDF716FD3C
:103BE0000548FDF711FE0548406818B1034A106802
:103BF0005168884710BD0000B8160020440200201C
:103C00002DE9F84F04464FF0000972B66949206863
:103C1000084418B1B0F5C05F0AD104E066480068F6
:103C200000F4402905E06448006800F4401900E011
:103C300000BF00BF2068D0F808A02068D0F80CB002
:103C400020684569206886692068006A00905949A3
:103C50002068084418B1B0F5C05F1CD10DE056488B
:103C60008838806B40F000405349883988630846A3
:103C7000806B20F0004088630EE04F488838C06BAE
:103C800040F020004C498839C8630846C06B20F0DA
:103C90002000C86300E000BF00BF0DB9002E76D041
:103CA00044492068084418B1B0F5C05F12D108E05B
:103CB0004148006820F440203F498839C1F8880015
:103CC00009E03D48006820F440103B498839C1F8BC
:103CD000880000E000BF00BFDDB12068006940F04F
:103CE00001002168086120684561FDF795F80746E5
:103CF00000BFFDF791F8A0EB07082068006800F00E
:103D00000800082802D0B8F57A7FF2D90820216887
:103D10004860DEB12068006940F001002168086158
:103D200020688661FDF778F8074600BFFDF774F854
:103D3000A0EB07082068006800F01000102802D0EF
:103D4000B8F57A7FF2D910202168486019492068B7
:103D5000084418B1B0F5C05F17D10AE016480068F2
:103D600020F4402040EA090013498839C1F888004E
:103D70000CE01148006820F4401040EA09000E49A8
:103D80008839C1F8880001E001E000BF00BF206869
:103D9000006920F00100216808612068C0F808A0CF
:103DA0002068C0F80CB000982168086262B600F084
:103DB00005B800000084FFBF8810024018BCBDE8B1
:103DC000E08F000000BF0BA002F03CFE0BA002F051
:103DD00039FE0CA002F036FE10A002F033FE00BF48
:103DE00000BF1048406900F400600028F9D102F0DB
:103DF00021FD00001B5B303B33316D004552524FBB
:103E0000523A20005056445F50564D5F4952514837
:103E1000616E646C65720A0D000000001B5B306D02
:103E200000000000007000402DE9F04104460F46FC
:103E300000255C48C06800F0030090B15948C06894
:103E400000F003002168884209D1206838B1554844
:103E5000C068C0F30210401C6168884233D001255D
:103E600031E02068012804D0022809D003281AD1A3
:103E70000DE04C48006800F0020000B9012514E094
:103E80004848006800F4806000B901250DE045480D
:103E9000006800F4003028B94248006800F480202F
:103EA00000B9012501E0012500BF00BF5DB9D4E9DB
:103EB0000010401E41EA00103A49C96821F0730120
:103EC00008433849C860002D68D13648006820F0A2
:103ED000806034490860FCF79FFF064606E0FCF767
:103EE0009BFF801B022801D9032505E02D480068AF
:103EF00000F000600028F2D100BFCDBB6FB9A06810
:103F00000002E168090940EA414026490969264A58
:103F1000114008432349086120E0012F0FD1A06818
:103F20000002218A0122C2EB510140EA41501D49A1
:103F300009691E4A114008431A4908610EE0A06849
:103F40000002217D0122C2EB510140EA4160154986
:103F50000969174A1140084312490861114800686D
:103F600040F080600F490860FCF756FF064607E006
:103F700014E0FCF751FF801B022801D9032505E05E
:103F80000848006800F000600028F2D000BF2DB99A
:103F900004480069A1690843024908612846BDE850
:103FA000F081000000100240FF80FDFFFF809FFFB6
:103FB000FF80FFF92DE9F04104460F4600255348E4
:103FC000C06800F0030090B15048C06800F00300E2
:103FD0002168884209D1206838B14C48C068C0F3D4
:103FE0000210401C6168884233D0012531E020680E
:103FF000012804D0022809D003281AD10DE0434833
:10400000006800F0020000B9012514E03F48006894
:1040100000F4806000B901250DE03C48006800F420
:10402000003028B93948006800F4802000B9012523
:1040300001E0012500BF00BF5DB9D4E90010401EBA
:1040400041EA00103149C96821F0730108432F4942
:10405000C860002D56D12D48006820F080502B49B3
:104060000860FCF7D9FE064606E0FCF7D5FE801B8B
:10407000022801D9032505E02448006800F000501B
:104080000028F2D100BF75BB6FB9A0680002E168DB
:10409000090940EA41401D4949691D4A1140084348
:1040A0001A4948610EE0A0680002217C0122C2EB9F
:1040B000510140EA416015494969164A11400843D7
:1040C000124948611148006840F080500F4908606B
:1040D000FCF7A2FE064607E0FCF79EFE801B0228C6
:1040E00002D9032506E00DE00848006800F0005002
:1040F0000028F1D000BF2DB9044840696169084328
:10410000024948612846BDE8F081000000100240E5
:10411000FF80FDFFFF80FFF9F8B504460026234825
:10412000806D00F0805018B1FDF750FC054616E098
:1041300000BF1E48806D40F080501C4988650846CD
:10414000806D00F08050009000BF00BFFDF73EFC86
:1041500005461648806D20F0805014498865B5F5F5
:10416000007F07D1802C10D9A02C01D902260CE0A9
:1041700001260AE0802C01D9032606E0802C01D11B
:10418000022602E0702C00D101260948006820F0C8
:1041900007003043064908600846006800F0070041
:1041A000B04201D00120F8BD0020FCE70010024021
:1041B0000020024010B50D4C4FF480200C490860DF
:1041C00020688068C0F3003078B12068C068C0F310
:1041D000002050B12068C06800F0800060F4C0701A
:1041E0002168C8602046FEF7B7FB10BD50160020BE
:1041F000140401400146080900EB8000420001F070
:104200000F001044C0B2704702460023114603E07D
:104210005B1CA1F10A00C1B20A29F9D2180741EAD0
:104220001060704770B5044600262068C06800F032
:104230004000B8B9701E2168C860FCF7EDFD054666
:1042400009E0FCF7E9FD401BB0F57A7F03D90326AE
:10425000032084F821002068C06800F0400008B9FD
:10426000032EEED1304670BD70B5044600251748C8
:10427000006820F0800015490860081F006800F001
:10428000200040B92046FEF7A1FEE0B1032084F8EB
:104290002100032517E00D48001F006820F02000D2
:1042A0000A49091F08602046FEF790FE18B1032056
:1042B00084F8210003250548001F006840F0200015
:1042C0000249091F0860284670BD00000C28004004
:1042D00010B50248FEF724FB10BD00005016002068
:1042E00010B5FDF745F9FFF718F810BD1048006844
:1042F00040F470000E4908600E48006840F001006C
:104300000C49086000208860084600680A49084097
:10431000084908608814C8600846006820F48020B6
:10432000086000208861C80301498039086070472F
:1043300088ED00E000100240FFFFF6EA90F824103C
:1043400001F0010139B10168496821F40031826A44
:1043500011430268516090F8241001F00201022913
:1043600007D10168496821F48031C26A11430268AB
:10437000516090F8241001F00401042907D101686C
:10438000496821F48021026B11430268516090F862
:10439000241001F00801082907D10168496821F4B7
:1043A0000041426B11430268516090F8241001F003
:1043B0001001102907D10168896821F48051826BAE
:1043C00011430268916090F8241001F02001202927
:1043D00007D10168896821F40051C26B114302685A
:1043E000916090F8241001F04001402913D1016838
:1043F000496821F48011026C114302685160016C1C
:10440000B1F5801F07D10168496821F4C001426CF1
:1044100011430268516090F8241001F08001802956
:1044200007D10168496821F40021826C11430268B8
:104430005160704738B504460020E067FCF7ECFC9B
:1044400005462068006800F0080008280CD16FF0CD
:104450007E402B4600224FF400110090204600F0D1
:1044600092FA08B1032038BD2068006800F004000B
:1044700004280CD16FF07E402B4600224FF48001BF
:104480000090204600F07FFA08B10320EBE72020DF
:104490006067A06700BF002084F8700000BF00BF05
:1044A000E1E770B50546AC6A0020A4F85A00A4F80C
:1044B00052002046FEF757FF70BD0168096821F4DD
:1044C0009071026811600168896821F00101026839
:1044D00091602021816700210166704710B5044674
:1044E0002068006820F04000216808602020606794
:1044F000002060662046FFF7CAF910BD2DE9F84F8D
:1045000004460026002000908246F8492068884230
:1045100000D100E000BF2169A06808436169084339
:10452000E16940EA010920680068F149084040EA71
:104530000900216808602068406820F44050E16864
:10454000084321684860D4F81890E84920688842F8
:1045500002D0206A40EA09092068806820F43060AF
:1045600040EA09002168886000BFE249206888426B
:1045700016D1E148006800F0030030B1012808D0EE
:10458000022804D0032808D105E0012507E0022510
:1045900005E0042503E0082501E0102500BF8DE0BB
:1045A000D6492068884216D1D348006800F00C0034
:1045B00030B1042808D0082804D00C2808D105E020
:1045C000002507E0022505E0042503E0082501E0B9
:1045D000102500BF72E0CA492068884216D1C6483B
:1045E000006800F0300030B1102808D0202804D036
:1045F000302808D105E0002507E0022505E0042564
:1046000003E0082501E0102500BF57E0BD49206800
:10461000884216D1B848006800F0C00030B1402888
:1046200008D0802804D0C02808D105E0002507E084
:10463000022505E0042503E0082501E0102500BF60
:104640003CE0B1492068884219D1AB48006800F4C9
:10465000407048B1B0F5807F0AD0B0F5007F05D03A
:10466000B0F5407F08D105E0002507E0022505E010
:10467000042503E0082501E0102500BF1EE09B494A
:104680002068884219D19C48006800F4406048B115
:10469000B0F5806F0AD0B0F5006F05D0B0F5406F6F
:1046A00008D105E0002507E0022505E0042503E028
:1046B000082501E0102500BF00E0102500BF8B4950
:1046C0002068884272D1042D10D003DC3DB1022D48
:1046D00013D108E0082D0DD0102D0ED10EE0FDF7FE
:1046E00011FD82460DE0DFF824A20AE0FDF72EFD61
:1046F000824606E04FF4004A03E000BF012000902C
:1047000000BF00BFBAF1000F0AD0606800EB4000A4
:10471000504503D860680003504502D20120009044
:1047200025E1042D2ED003DC3DB1022D51D118E03E
:10473000082D3CD0102D4CD14CE0FDF7E3FC4FF49C
:104740008071A0FB0130616849085F1840F10001E9
:10475000D4F804C0624600233846FBF731FD064614
:104760003BE0D4F804C04FEA5C000021684BC71856
:1047700041EB010862460B4638464146FBF720FDF7
:1047800006462AE0FDF7E2FC4FF48071A0FB013001
:10479000616849085F1840F10001D4F804C062461E
:1047A00000233846FBF70CFD064616E022E0D4F85D
:1047B00004C04FEA5C0000214FF40003C71841EB2E
:1047C000010862460B4638464146FBF7F9FC0646AF
:1047D00003E000BF0120009000BF00BFB6F5407F9E
:1047E00005D3B6F5801F02D22068C660BFE0012065
:1047F0000090BCE0E069B0F5004F57D1042D28D0FF
:1048000005DC4DB1012D11D0022D36D118E0082D57
:1048100029D0102D31D131E0FDF774FC40006168E2
:1048200000EB5100B0FBF1F086B22AE0FDF77CFC12
:104830004000616800EB5100B0FBF1F086B220E06F
:104840003449606801EB50006168B0FBF1F086B25A
:1048500017E0FDF77BFC4000616800EB5100B0FB06
:10486000F1F086B20DE04FF48031606801EB50004A
:104870006168B0FBF1F086B203E000BF0120009058
:1048800000BF00BF102E0ED3B6F5803F0BD24FF6FF
:10489000F07006EA000BC6F342004BEA000B2068FA
:1048A000C0F80CB063E00120009060E0042D3CD023
:1048B00005DC4DB1012D10D0022D49D12CE0082D81
:1048C0003CD0102D44D144E0FDF71CFC616800EBA6
:1048D0005100B0FBF1F086B23EE0FDF725FC6168C7
:1048E00000EB5100B0FBF1F086B235E000800040F3
:1048F000F369FFEF00380140881002400044004097
:1049000000480040004C0040005000400024F400EB
:10491000000024F40048E8011849606801EB5000E9
:104920006168B0FBF1F086B216E0FDF70FFC61683C
:1049300000EB5100B0FBF1F086B20DE04FF4004106
:10494000606801EB50006168B0FBF1F086B203E0F3
:1049500000BF0120009000BF00BF102E05D3B6F5A8
:10496000803F02D22068C66001E001200090002054
:1049700020666066009800F003B800000024F40090
:1049800018BCBDE8E08F2DE9F04104460D461746FE
:104990009846069E1FE0701CE8B1FCF73DFAA0EBBC
:1049A0000800B04200D8B6B92068006820F4D07082
:1049B000216808602068806820F001002168886014
:1049C00020206067A06700BF002084F8700000BF4F
:1049D0000320BDE8F0812068C0692840A84201D1C9
:1049E000012000E00020B842D5D00020F1E700000F
:1049F00010B50248FEF7B8FC10BD000050020020C0
:104A000010B50248FEF7B0FC10BD0000D80200202F
:104A100010B50248FEF7A8FC10BD0000600300209E
:104A200037B514460846064B6A46214600F0FCF8A6
:104A300004466946002000F091FC20463EBD00007F
:104A40005D53000802480068C0F302207047000070
:104A50000CED00E010B5002804DB0A07130E054A30
:104A6000135406E00A07140E034A00F00F031B1F3D
:104A7000D45410BD00E400E018ED00E002E008C8E6
:104A8000121F08C1002AFAD170477047002001E0C8
:104A900001C1121F002AFBD1704700002DE9FF5F02
:104AA00082B00021DDE90430020DDDF840B003439F
:104AB00018D044F61050A2F2FF3242431514119858
:104AC00001281FD0A5EB0B00401C5FEA000A4FF045
:104AD00000064E4FDFF83891B046504615D5CAF162
:104AE000000413E0119801244AA3012801D16FEAC0
:104AF0000B010298119AC0E90031C0E9024206B0E8
:104B000000F08EB8CBF10000DFE704460021404AF8
:104B1000491842EB0450CDE9001012E0E00707D03D
:104B200032463B4640464946FBF7FBFD80468946F8
:104B300032463B4610461946FBF7F3FD06460F4644
:104B40006410002CEAD1DDE90401DDE90023BAF1AB
:104B5000000F06DAFBF7E5FD42464B46FBF7E1FDA9
:104B600005E0FBF708FC42464B46FBF704FC044615
:104B70000E460022284BFBF761FE03D84FF0FF30B2
:104B8000014607E00022254B20463146FBF71AFD7F
:104B9000FBF73CFE102409E0002C0ADB0A2200236C
:104BA000FBF70EFB039B30321A55641E50EA0102DC
:104BB000F2D1641C039AC4F111031444119A012A1E
:104BC00003D0012208430DD10AE0084304D000209D
:104BD0004FF0110B119072E7A3EB0B056D1E0DE06A
:104BE0005B4504DD4FF0000205F1010504E003DA46
:104BF0004FF00002A5F10105002AECD002981199AE
:104C0000C0E90231C0E9004579E700000000144026
:104C10000000F03F300000000000F0430000E03FE3
:104C200030BCBDE8C09F00002DE9FF4F95B09B460A
:104C30008946064600250FE2252877D1002427461D
:104C4000F84A0121059400E0044316F8013F203B97
:104C500001FA03F01042F7D130782A2811D06FF012
:104C60002F033078A0F13002092A16D8059A44F0B3
:104C7000020402EB820203EB42021044761C059010
:104C8000EFE759F8042B0592002A03DA504244F466
:104C90000054059044F00204761C30782E2816D17A
:104CA00016F8010F44F004042A280DD06FF02F02EB
:104CB0003078A0F13003092B09D807EB870302EB0A
:104CC0004303C718761CF3E759F8047B761C307849
:104CD0006C280FD006DC4C2817D068280DD06A2825
:104CE00014D104E0742810D07A280FD10DE044F4D8
:104CF00000140AE044F4801401E044F44014727893
:104D0000824202D104F58014761C761C3078662825
:104D10000BD013DC582877D009DC002875D0452843
:104D2000F6D04628F4D047281AD19DE118E0632830
:104D300035D0642879D0652812D195E1702873D0D8
:104D400008DC6728F1D069286FD06E280DD06F2855
:104D500006D1B5E073282CD0752875D0782874D08A
:104D60005A46179990476D1C75E1C4F3025002280A
:104D700009D003280DD0D9F8001004280DD00D60FB
:104D800009F1040967E1D9F80010EA17C1E90052F6
:104D9000F6E7D9F800100D80F2E70D70F0E719F88A
:104DA000041B8DF8001000208DF80100EA46012058
:104DB00003E059F804AB4FF0FF3061074FF00001FA
:104DC00002D40DE008F101018846B9420FDA8045AE
:104DD000F8DB1AF808100029F4D108E008F1010105
:104DE00088468142FADB1AF808100029F6D10598A6
:104DF0005B46A0EB080721463846179A00F097FA61
:104E0000284400EB080507E04DE029E10DE01AF821
:104E1000010B5A4617999047B8F10108F7D25B4643
:104E200021463846179A13E142E00A220092C4F361
:104E300002524FF0000A022A08D059F804CB032A84
:104E40004FEAEC710AD00DE029E02AE009F10701F0
:104E500021F00702F2E802C1914609E00FFA8CFC4A
:104E60004FEAEC71042A03D14FFA8CFC4FEAEC7143
:104E7000002907DA0A460021DCF1000C61EB02018F
:104E80002D2202E0220504D52B228DF804200122D8
:104E900003E0E20701D02022F7E7904659E00A211B
:104EA00002E010220DE010214FF0000A00910BE00B
:104EB00010224FF0000A44F004040827009203E097
:104EC00008224FF0000A0092C4F30252022A05D0D1
:104ED00059F804CB0021032A08D009E009F10701A1
:104EE00021F00702F2E802C1914605E01FFA8CFCAE
:104EF000042A01D10CF0FF0C4FF00008220728D53E
:104F0000702806D0009B83F0100353EA0A0305D0F3
:104F10000EE040228DF80420012208E05CEA010244
:104F200006D030228DF804208DF80500022290462C
:104F3000009B83F0080353EA0A030AD15CEA0102EA
:104F400001D1620705D530228DF804204FF0010809
:104F50007F1E582804D034A003900EA802900DE0C4
:104F600036A0F9E753466046009AFBF729F98446D4
:104F70000398825C0298401E029002705CEA010075
:104F8000F0D1029806A9081A00F1200A600702D59C
:104F900024F4803400E00127574502DDA7EB0A0026
:104FA00000E0002000EB0A01009005984144401AFF
:104FB0000590E00306D45B462146179A059800F059
:104FC000B6F90544002706E001A85A46C05D1799C6
:104FD00090476D1C7F1C4745F6DBE0030CD55B4614
:104FE0002146179A059800F0A2F9054404E0302004
:104FF0005A46179990476D1C0099481E0090002949
:10500000F5DC08E0029802995A460078491C0291A2
:10501000179990476D1CBAF10001AAF1010AF1DC61
:1050200065E100000928010030313233343536376C
:1050300038396162636465660000000030313233E4
:105040003435363738394142434445460000000084
:1050500000F05BF90544761C307800287FF4ECAD55
:1050600019B0284600F04EB9620700D4062709F1AE
:10507000070222F0070CFCE80223E14603F0004897
:105080005FEA080C02D00FF2702C0DE05FEA045CBE
:1050900002D50FF2682C07E05FEAC47C02D00FF261
:1050A000602C01E0AFF2700C4FF0FF3823F00043AA
:1050B000CDF850C065280CD006DC452809D046281C
:1050C0001DD047283DD13DE0662818D067287ED105
:1050D00038E00021112F01DB112000E0781CCDE920
:1050E000000106A90EA8FFF7D9FCDDE90F010E9A11
:1050F00003910021009207F1010A04914DE04FF065
:1051000000400097CDE9011006A90EA8FFF7C6FCE4
:10511000DDE90F0203920E9B11990022DDF80CA02D
:105120000093049211B9791C00EB010AB7EB0A0055
:1051300004D4C0F1FF3007F1010A0490AAEB070084
:10514000019044E0012F00DA01270021112F01DD39
:10515000112000E03846CDE9000106A90EA8FFF7AE
:105160009DFCDDE90F010E9A03910021049100924C
:10517000BA4621070CD40399514500DA8A46BAF1A0
:10518000010F05DD009AAAF10101515C302908D018
:10519000B84202DA10F1040F06DA0121CDE901105C
:1051A00015E0AAF10101E9E7002805DC04990144B2
:1051B0000491AAEB000102E0411C514500DD8A4642
:1051C0000499401A401C01904FF0004002902007C3
:1051D00004D40198504501DBCDF8048000208DF8FF
:1051E0004F0002980DF14F07B0F1004F25D02B2052
:1051F0000E9002984FF0020800280CDA404202900C
:105200002D200E9007E00A210298FBF749F9303172
:10521000029007F8011DB8F10001A8F10108F2DCC5
:1052200002980028EFD1791E0E980870307800F0AF
:10523000200040F0450007F8020D12A8C01B00F145
:1052400007081498007800B1012000EB0A010198CA
:1052500001EBE07105984144401A401E0590E003BF
:1052600006D45B462146179A059800F060F805447D
:105270001498007818B15A46179990476D1CE003AE
:1052800024D55B462146179A059800F050F805444E
:105290001CE00498002807DBDDE90301884203DDF8
:1052A0000098405C179901E0179930205A469047C2
:1052B000049805F10105401C04900198401E0190DE
:1052C00004D12E205A46179990476D1CBAF100015F
:1052D000AAF1010ADDDC05E017F8010B5A4617991F
:1052E00090476D1CB8F10001A8F10108F4DC5B46A1
:1052F0002146179A0598ABE62D0000002B00000010
:105300002000000030BCBDE8C08F2DE9F04104460C
:1053100000251E461746880404D405E0394620209F
:10532000B0476D1C641EF9D52846BDE8F0812DE913
:10533000F041044600251E469046C80301D530279B
:1053400000E02027880404D505E041463846B047F0
:105350006D1C641EF9D52846BDE8F0810A68531C0F
:105360000B60107070470000044890ED000ABDEE1D
:10537000C00A10EE100A00B270470000500500206D
:10538000044890ED010ABDEEC00A10EE100A00B20A
:105390007047000050050020044890ED020ABDEE61
:1053A000C00A10EE100A00B270470000500500203D
:1053B0001CB500200090684602F077F901A802F0C1
:1053C00099F9BDF8040000B21CBD000038B50024F6
:1053D0002FE0684602F0B8F99DF8000048B316487F
:1053E00000210160818002F02EF8134802F035F8A8
:1053F0001148801C02F03BF80F48001D02F041F8F4
:105400000D49B1F9000002F09DF80C4880ED000A4A
:105410000949B1F9020002F095F8084880ED010A47
:105420000549B1F9040002F08DF8044880ED020A44
:105430000124002CCDD038BD4200002050050020B2
:105440003EB5054600240BE04B4802F05AF84A48A6
:105450000078332803D0052C01D100203EBD641C08
:10546000052C03DC444800783328EDD1022002F0FB
:105470002CF8032002F028F9002002F00CF800209C
:1054800002F049F8002002F06DF8012201A9202065
:1054900002F0FAF89DF8040020F00100401C019091
:1054A0009DF8040020F00200801C01909DF804008B
:1054B00020F00400001D01909DF8040020F0080079
:1054C00008300190012201A9202002F02CF90120CE
:1054D00002F05EF89DF8000020F0100000909DF8AA
:1054E000000020F04000403000909DF8000020F0C7
:1054F000200000909DF8000020F0800000909DF8B2
:10550000000020F0020000909DF8000020F0040050
:1055100000909DF8000020F0010000909DF8000030
:1055200020F008000090684602F0A4F8012002F084
:105530008BF89DF8080020F00200801C02909DF876
:10554000080020F00800083002909DF8080020F0C4
:1055500020002030029002A802F030F8042002F06F
:1055600057F8032002F034F805F0010008B100F00C
:1055700005F8012072E700004100002010B5044941
:10558000B1F900000B460122002100F09FFE10BD82
:105590004800002038B505460C466A46C7210D482C
:1055A00003F0BDFBBDF80200A0420BDD00200A495C
:1055B00081F87600E3B22A46C721064803F042FA92
:1055C000012038BDBDF80220214604A001F03AFABE
:1055D0000020F6E778150020600500204E6F74204B
:1055E000656E6F756768742073706163652C206EDB
:1055F000656564203D202564206279746573202DE3
:105600002066726565203D2025642062797465738B
:105610000D0A000010B5104800F0C0F876200E49C1
:105620002C3988842C31A1F12C0000F039F888B98C
:1056300000BF0AA001F006FA0AA001F003FA0BA0CD
:1056400001F000FA14A001F0FDF900BF4FF4FA7068
:10565000FBF7EEF910BD0000180400201B5B303B87
:1056600033316D004552524F523A200023232323F9
:105670002323203D3D3D3D3D20424D4520494E499F
:1056800054204552524F52203D3D3D3D202323237F
:105690002323230D0A0D0A001B5B306D0000000060
:1056A0002DE9F84305460C46A88C762805D0A88C31
:1056B000772802D00020BDE8F883012305F13202EB
:1056C000D021284604F0B1F808B10020F3E795F89E
:1056D0003200582805D095F83200602801D000200B
:1056E000E9E7B622E021284604F0DAFD08B10020FF
:1056F000E1E70DE001236A46F321284604F095F81E
:1057000028B99DF8000000F0010000B901E000BFD9
:10571000F0E700BF284604F02EF808B90020CAE7D9
:1057200095F83200602805D1284604F09DF808B9A4
:105730000020C0E760794001617840EA8100C6B28C
:105740003246F521284604F0ABFD08B10020B2E74F
:105750002078012801D100202070E0784001A17854
:1057600040EA810021780843C7B295F832006028EA
:105770000AD194F804804246F221284604F090FDB4
:1057800008B1002097E700BF3A46F421284604F00C
:1057900087FD08B100208EE701208CE7032101700E
:1057A0000021417003218170C17001714171704706
:1057B0002DE9FE4F0446884691461D4694F8320076
:1057C000602803D00DB10020286000250DB108200D
:1057D00000E0062000900098C3B201AAF7212046FD
:1057E00004F023F810B1002000F046B89DF8040042
:1057F00000039DF8051040EA01109DF8061040EAEC
:10580000211A9DF8070000039DF8081040EA0110D6
:105810009DF8091040EA211600BFF2102388A2EB80
:105820004302B4F902305A43D0122288C2EB261246
:1058300052431213B4F904305A439113471807EB3B
:10584000870280321212C8F800203A46514620469C
:1058500000F04DFAC9F8000065B19DF80B009DF805
:105860000A1040EA012B3A465946204600F002FA57
:10587000286000BF0120B7E71EBCBDE8E08F000034
:10588000FEB507460D4616461C460CB1684600E0BC
:105890000020034601AA02A93846FFF789FF00B39A
:1058A0009DED020AB8EEC00ADFED0F0A80EE201A65
:1058B00085ED001A9DED010AB8EE400ADFED0B0AF6
:1058C00080EE201A86ED001A4CB19DED000AB8EE6C
:1058D000400ADFED070A80EE201A84ED001A01204D
:1058E000FEBD0020FCE700000000C842000080432D
:1058F0000000804410B50020DC49A1F8780008467B
:1059000090F8790302283ADD0721D848B0F87820CA
:10591000B0F87800401CD54BA3F8780003F17A006A
:1059200081547A3890F87412B0F87820B0F8780082
:10593000401CA3F8780003F17A0081541946B1F8AD
:105940007422B1F878300146581801F5FE71FAF763
:10595000E7FCC648B0F87800C449B1F874120844AE
:10596000C249A1F878000846B0F878107A30FFF7FD
:1059700011FE0020BD49A1F8780081F87903BB48E9
:1059800090F88003002855DD00240821B748B0F8BE
:105990007820B0F87800401CB44BA3F8780003F1ED
:1059A0007A0081547A3890F88003C0EBC000C1B20D
:1059B0001846B0F87820B0F87800401CA3F87800BA
:1059C00003F17A0081547A3890F87840002013E08F
:1059D000A74901EB40110A7AA4497A310A55621CA1
:1059E0000A44A34901EB40110B6813608988918038
:1059F000E11DCCB2411CC8B29C4991F88013814290
:105A0000E6DC9A48B0F87800984991F88013C1EB29
:105A1000C10108449549A1F878000846B0F878100B
:105A20007A30FFF7B7FD00209049A1F8780081F89F
:105A3000800300BF09218D48B0F87820B0F87800C5
:105A4000401C8A4BA3F8780003F17A0081547A381D
:105A5000B0F87820B0F87800401CA3F8780003F183
:105A60007A0081547A3890F87410B0F87820B0F841
:105A70007800401CA3F8780003F17A0081547A384A
:105A8000B0F8C008C0F307211846B0F87820B0F885
:105A90007800401CA3F8780003F17A0081547A382A
:105AA00090F8C018B0F87820B0F87800401CA3F83F
:105AB000780003F17A0081547A38B0F8C208C0F354
:105AC00007211846B0F87820B0F87800401CA3F8F9
:105AD000780003F17A0081547A3890F8C218B0F84F
